:020000040800F2
:100000000050002099020008A1020008A502000883
:10001000BD020008C1020008D9020008000000006B
:100020000000000000000000000000007116000841
:10003000F50200080000000011170008B1130008C5
:100040000D1000080D1000080D1000080D1000081C
:100050000D1000080D1000080D1000080D1000080C
:100060000D1000080D1000080D1000080D100008FC
:100070000D1000080D1000080D1000080D100008EC
:100080000D1000080D1000080D1000080D100008DC
:100090000D1000080D1000080D1000080D100008CC
:1000A0000D1000080D1000080D1000080D100008BC
:1000B0000D1000080D1000080D1000080D100008AC
:1000C0000D1000080D1000080D1000080D1000089C
:1000D0000D1000080D1000080D1000080D1000088C
:1000E0000D1000080D1000080D1000080D1000087C
:1000F0000D1000080D1000080D1000080D1000086C
:100100000D1000080D1000080D1000080D1000085B
:100110000D1000080D1000080D1000080D1000084B
:100120000D1000080D1000080D1000080D1000083B
:100130000D1000080D1000080D1000080D1000082B
:100140000D1000080D1000080D1000080D1000081B
:100150000D1000080D1000080D1000080D1000080B
:100160000D1000080D1000080D1000080D100008FB
:100170000D1000080D1000080D1000080000000010
:100180000D10000800B583B000F030FF304B314A4D
:100190001360314A1360314B314A03E01168196032
:1001A000043304322F498B42F8D32A4B1A682E4B62
:1001B0009A4204D1284B1A682C4B9A4200D0FEE791
:1001C000234B2B4A13602B4A13602B4B02E0002277
:1001D0001A600433294A9342F9D3254B1B6813B99B
:1001E000244B1B6803B1FEE700F00CFF694601A831
:1001F00000F0F4FE224C234B1C1BA410002504E04D
:100200001F4B53F8253098470135AC42F8DC1E4CA3
:100210001E4B1C1BA410002504E01B4B53F825307B
:1002200098470135AC42F8DC0099019801F04CF890
:100230000546174C174B1C1BA41004E0013C144B43
:1002400053F824309847002CF8DC284600F0C4FE10
:10025000BABADECA0000002014000020000000200E
:10026000582400081800002078563412325476982A
:1002700018000020E441002018000020E841002080
:100280003403000834030008340300083403000872
:10029000340300083403000808B5FFF773FF00BFFC
:1002A00000BEFEE71EF0040F0CBFEFF30880EFF373
:1002B00009807146124A104700BEFEE700BEFEE705
:1002C0001EF0040F0CBFEFF30880EFF309807146B6
:1002D0000C4A104700BEFEE71EF0040F0CBFEFF300
:1002E0000880EFF309807146074A104700BEFEE719
:1002F00000BEFEE700BEFEE700BEFEE7704700005E
:0C030000B9020008D5020008ED02000858
:10030C005824000800000020180000205824000881
:10031C00000000000000000018000020E841002050
:08032C000000000000000000C9
:1003400010B50446074B1B680748A0FB0330800923
:1003500000F094F8002221464FF0FF3000F04CF8F6
:10036000002010BD0C000020D34D621008B50B4BCF
:100370001A6842F400721A601A6842F480621A60C5
:100380001A6842F480721A60032000F017F80F20F8
:10039000FFF7D6FF00F0C2FF002008BD003C02407E
:1003A000024A136801331360704700BF6C3D0020A0
:1003B000014B1868704700BF6C3D002010B5044623
:1003C000C31E042B03D9A221094800F0A5FF094A46
:1003D000D36823F4E0631B041B0C240204F4E064E0
:1003E000234343F0BF6343F40033D36010BD00BF29
:1003F0005C23000800ED00E070B504460E4615468B
:100400000F2A03D9BA211A4800F086FF0F2E03D90C
:10041000BB21174800F080FF164BDA68C2F30222B6
:10042000C2F10701042928BF0421131D062B01D99D
:10043000033A00E00022012303FA01F101393140BF
:10044000914003FA02F2013A2A400A43002C06DAEC
:1004500004F00F041201D2B2074B1A5570BD1201FD
:10046000D2B204F1604404F5614484F8002370BD05
:100470005C23000800ED00E014ED00E00138B0F16D
:10048000807F0AD2064B5860F021064A82F823107A
:100490000020986007221A6070470120704700BF53
:1004A00010E000E000ED00E010B50446042805D09F
:1004B00020B140F2D911084800F02EFF042C05D1DC
:1004C000064A136843F00403136010BD034A13681F
:1004D00023F00403136010BD5C23000810E000E06B
:1004E0002DE9F04782B080460F46A64B984223D0B4
:1004F00003F5806398421FD003F5806398421BD0B8
:1005000003F58063984217D003F58063984213D0B7
:1005100003F5806398420FD003F5806398420BD0B7
:1005200003F58063984207D003F58063984203D0B7
:10053000C221954800F0F0FE3B689AB212B11B0C44
:100540001B041BB1C321904800F0E6FE7B68012B21
:1005500022D9112B20D0022B1ED0122B1CD08B4A5B
:10056000934219D002F58012934215D002F5801201
:10057000934211D0A2F5F81293420DD002F58012E9
:10058000934209D002F58012934205D0032B03D089
:10059000C4217D4800F0C0FEBB68022B03D9C521F1
:1005A000794800F0B9FE00252CE10124AC403E68FA
:1005B0002640B44240F025817B68022B01D0122BEB
:1005C0004AD13B69C3B3092B36D0ABB3A3B39BB3BA
:1005D00093B3012B30D02FD0022B2DD02CD02BD089
:1005E000032B29D0042B27D026D025D0052B23D0B0
:1005F00022D0092B20D0062B1ED0092B1CD0072B74
:100600001AD019D018D0082B16D015D014D0092B19
:1006100012D011D00A2B0FD00ED00B2B0CD00C2BDC
:100620000AD009D00D2B07D00C2B05D00F2B03D0EF
:10063000D621554800F070FEEA08083258F822002A
:1006400005F0070399000F238B4020EA03003B6964
:100650008B40034348F82230D8F800304FEA450A6F
:100660004FF0030909FA0AF96FEA090903EA0902D6
:100670007B6803F0030303FA0AF31343C8F800305E
:100680007B685A1E012A03D9112B01D0122B1BD1D2
:10069000FB68032B03D9E9213B4800F03DFED8F865
:1006A000083009EA0302FB6803FA0AF31343C8F8A7
:1006B0000830D8F8043023EA04047B68C3F300133D
:1006C000AB401C43C8F80440D8F80C3009EA0309D1
:1006D000BB6803FA0AF349EA0303C8F80C307B68E5
:1006E00013F0805F00F08D8000230193284B5A6C3B
:1006F00042F480425A645B6C03F480430193019B93
:10070000A9088A1C234B53F8220005F003039B0021
:100710000F229A4020EA02001A4A904521D002F5A1
:10072000806290451FD002F5806290451DD002F591
:10073000806290451BD002F58062904519D002F589
:100740008062904517D002F58062904515D002F581
:100750008062904513D002F5806290451CD108223A
:100760001BE0002219E0012217E0022215E003221B
:1007700013E0042211E005220FE006220DE007221B
:100780000BE000BF000002408C23000800001110A5
:100790000038024000380140092202FA03F3034303
:1007A00002311B4A42F821301A4B1A68F34302EA1D
:1007B0000301786810F4803F01D046EA0201154A2F
:1007C0001160526803EA0201786810F4003F01D01A
:1007D00046EA02010F4A5160926803EA0201786812
:1007E00010F4801F01D046EA02010A4A9160D268E3
:1007F0001340796811F4001F01D046EA0203054A4C
:10080000D36001350F2D7FF6D0AE02B0BDE8F08782
:1008100000380140003C014038B505460C4621B97E
:1008200040F28B11044800F077FD2B691C4201D087
:10083000012038BD002038BD8C23000870B5064665
:1008400015460C4621B940F2AB11084800F064FD92
:10085000012D04D94FF4D671044800F05DFD0DB1AF
:10086000B46170BD2404B46170BD00BF8C23000866
:1008700038B504460D4621B940F2C111034800F0D5
:100880004BFD61696940616138BD00BF8C23000880
:10089000002800F0FD8130B583B0044603680F2BBB
:1008A00004D94FF4B9719C4800F036FD236813F069
:1008B000010F46D06368012B06D9052B04D040F206
:1008C0007711954800F028FD944B9B6803F00C03CA
:1008D000042B0AD0914B9B6803F00C03082B0CD11E
:1008E0008E4B5B6813F4800F07D08C4B1B6813F49E
:1008F000003F26D0636823BBCCE12279884B1A7075
:1009000063687BB1FFF754FD054605E0FFF750FD36
:10091000401B642800F2C081804B1B6813F4003F29
:10092000F4D00EE0FFF744FD054605E0FFF740FD7B
:10093000401B642800F2B281784B1B6813F4003F1F
:10094000F4D1236813F0020F6AD0E368012B04D9B5
:1009500040F2A911704800F0DFFC23691F2B04D975
:100960004FF4D5716C4800F0D7FC6C4B9B6813F0CA
:100970000C0F0AD0694B9B6803F00C03082B1BD1AA
:10098000664B5B6813F4800F16D1644B1B6813F041
:10099000020F03D0E368012B40F082815F480368B7
:1009A00023F0F8012369F82292FAA2F2B2FA82F255
:1009B00093400B43036033E0E368FBB10122594BE2
:1009C0001A60FFF7F5FC054605E0FFF7F1FC401B58
:1009D000022800F26781514B1B6813F0020FF4D01C
:1009E0004E48036823F0F8012369F82292FAA2F234
:1009F000B2FA82F293400B43036011E00022494BAC
:100A00001A60FFF7D5FC054605E0FFF7D1FC401B57
:100A1000022800F24981414B1B6813F0020FF4D108
:100A2000236813F0080F2ED06369012B04D94FF40B
:100A3000F571394800F070FC636993B101223A4BBB
:100A40001A60FFF7B5FC054605E0FFF7B1FC401B57
:100A5000022800F22B81314B5B6F13F0020FF4D0B0
:100A600011E00022304B1A60FFF7A2FC054605E0BA
:100A7000FFF79EFC401B022800F21A81274B5B6F98
:100A800013F0020FF4D1236813F0040F5FD0A368B2
:100A9000012B06D9052B04D04FF405711E4800F038
:100AA0003BFC002301931D4B1A6C42F080521A64E8
:100AB0001B6C03F080530193019B1C4A136843F4A1
:100AC00080731360FFF774FC054605E0FFF770FCC8
:100AD000401B022800F2EE80144B1B6813F4807F49
:100AE000F4D0227A124B1A70A3688BB1FFF760FC26
:100AF000054607E0FFF75CFC401B41F28833984253
:100B000000F2DA80054B1B6F13F0020FF2D01EE0EB
:100B1000FFF74EFC054615E0BC23000800380240F4
:100B20000238024000004742800E474200700040F9
:100B300070380240FFF73CFC401B41F2883398427A
:100B400000F2BC80644B1B6F13F0020FF2D1A3695B
:100B5000022B04D940F24921604800F0DDFBA36973
:100B6000002B00F0AD805C4A926802F00C02082A6B
:100B700000F0A880022B78D1E3693BB1B3F5800F78
:100B800004D040F25221554800F0C6FB236A3F2BA7
:100B900004D940F25321514800F0BEFB636AC03BC8
:100BA000F02B04D94FF415714C4800F0B5FBA36A43
:100BB000022B0AD0042B08D0062B06D0082B04D019
:100BC00040F25521454800F0A7FBE36A023B0D2B9C
:100BD00004D940F25621414800F09EFB0022404BD0
:100BE0001A60FFF7E5FB054604E0FFF7E1FB401B59
:100BF000642869D8384B1B6813F0007FF5D1E16990
:100C0000236A1943636A47F6C07292FAA2F2B2FAF3
:100C100082F293401943A36A5B085A1E4FF4403393
:100C200093FAA3F3B3FA83F302FA03F30B43E26AF2
:100C30004FF0706191FAA1F1B1FA81F18A4013434A
:100C4000254A53600122264B1A60FFF7B1FB044688
:100C500004E0FFF7ADFB001B642837D81E4B1B6870
:100C600013F0007FF5D0002033E000221C4B1A6007
:100C7000FFF79EFB044604E0FFF79AFB001B642885
:100C800026D8154B1B6813F0007FF5D1002020E01B
:100C90000120704701201CE003201AE0032018E027
:100CA000012016E0032014E0032012E0032010E0EE
:100CB00003200EE003200CE003200AE0032008E0FC
:100CC000002006E0012004E0032002E0032000E011
:100CD000032003B030BD00BF00380240BC23000831
:100CE0006000474238B52F4B9B6803F00C03042B80
:100CF00055D0082B01D02C4838BD2A4B5A6802F039
:100D00003F025B6813F4800F20D0264B5B68C3F36F
:100D10008813DC000025690141EAD4616001041BED
:100D200061EB0505A90141EA9461A001001B61EB9B
:100D30000501C01841F100014B0243EAD0534402BF
:100D400020461946002301F079F91FE0154B5B6836
:100D5000C3F38813DC000025690141EAD461600116
:100D6000041B61EB0505A90141EA9461A001001B88
:100D700061EB0501C01841F100018B0243EA905379
:100D8000840220461946002301F058F9054B5B68A0
:100D9000C3F3014301335B00B0FBF3F038BD0348FC
:100DA00038BD00BF003802400024F40000127A0071
:100DB000002800F0F38070B504460D460368013B3F
:100DC0000E2B04D940F2BA217B4800F0A5FA072D7A
:100DD00004D940F2BB21784800F09EFA774B1B689B
:100DE00003F00F039D4208D9EBB2744A13701368E5
:100DF00003F00F039D4240F0D380236813F0020FED
:100E00002ED013F0040F04D06D4A936843F4E053DE
:100E10009360236813F0080F04D0694A936843F481
:100E200060439360A368A3B1802B12D0902B10D0A5
:100E3000A02B0ED0B02B0CD0C02B0AD0D02B08D0BA
:100E4000E02B06D0F02B04D040F2DF215A4800F00E
:100E500063FA5B498B6823F0F002A36813438B604D
:100E6000236813F0010F37D06368022B04D940F2D6
:100E7000E621514800F050FA6268012A05D1504B32
:100E80001B6813F4003F0ED18CE0022A05D14C4BB5
:100E90001B6813F0007F06D186E0494B1B6813F0F6
:100EA000020F00F0838046498B6823F0030313434D
:100EB0008B60FFF77DFA064606E0FFF779FA801BA4
:100EC00041F28833984273D83D4B9B6803F00C0382
:100ED0006268B3EB820FF0D1384B1B6803F00F034D
:100EE0009D4207D2EAB2354B1A701B6803F00F031C
:100EF0009D425FD1236813F0040F19D0E36883B1DA
:100F0000B3F5805F0DD0B3F5A05F0AD0B3F5C05F35
:100F100007D0B3F5E05F04D040F22331264800F05B
:100F2000FBF927498B6823F4E052E36813438B6095
:100F3000236813F0080F1AD0236983B1B3F5805FDB
:100F40000DD0B3F5A05F0AD0B3F5C05F07D0B3F5FD
:100F5000E05F04D040F22A31174800F0DDF9184A6A
:100F6000936823F46043216943EAC1039360FFF768
:100F7000B9FE134B9B6803F0F002F02393FAA3F33E
:100F8000B3FA83F322FA03F30E4AD35CD8400E4B34
:100F900018600F20FFF7D4F9002070BD01207047C2
:100FA000012070BD012070BD012070BD012070BD09
:100FB000032070BD012070BDBC230008003C02402E
:100FC00000380240E82300080C000020014B18689C
:100FD000704700BF0C000020FEE700BF0123036044
:100FE000014B0B60704700BF0400002008B500F003
:100FF0000FF8024B024A9A6008BD00BF00ED00E006
:101000000000000808B500F023F808BDFEE7000066
:101010000C4B1A6842F001021A60002199601A68AC
:1010200022F0847222F480321A60074A5A601A68E9
:1010300022F480221A60D9604FF00062034B9A605C
:10104000704700BF003802401030002400ED00E07F
:10105000224B9B6803F00C03042B07D0082B09D00C
:10106000002B2DD11E4A1F4B1A602CE01E4A1D4B2F
:101070001A6028E0194B5A685B6803F03F0312F4CA
:10108000800F09D0184AB2FBF3F2144B5B68C3F32C
:10109000881303FB02F208E0114AB2FBF3F30F4A94
:1010A0005168C1F3881101FB03F20C4B5B68C3F379
:1010B000014301335B00B2FBF3F30A4A136002E021
:1010C000074A084B1A60054B9B68C3F30313074A92
:1010D000D15C044A1368CB4013607047003802406B
:1010E0000024F4000C00002000127A00E82300081D
:1010F000F0B58DB0002401943A4B1A6B42F0040213
:101100001A631A6B02F004020192019A02941A6B9C
:1011100042F080021A631A6B02F080020292029A75
:1011200003941A6B42F001021A631A6B02F0010277
:101130000392039A04941A6B42F002021A631A6B28
:1011400002F002020492049A05941A6B42F008021B
:101150001A631A6B02F008020592059A06941A6B3C
:1011600042F040021A631B6B03F040030693069B98
:101170001D4E22464FF480413046FFF75FFB1B4D6A
:10118000224640212846FFF759FB012280213046A4
:10119000FFF754FB4FF400530793154B0893099442
:1011A00007A91448FFF79CF94FF4814307930127DF
:1011B000089709940A9407A93046FFF791F940234C
:1011C0000793089709940A9407A92846FFF788F916
:1011D000802307930894099407A92846FFF780F90C
:1011E0000DB0F0BD0038024000040240001802407B
:1011F000000011100008024008B580210348FFF7E5
:1012000037FB642000F044FBF7E700BF0004024016
:1012100008B54FF400510548FFF7FEFA02464FF4B7
:1012200080410348FFF70AFBF3E700BF00080240D4
:1012300000040240FEE700BF00B593B0022306930E
:101240000122099210220A920C9300220D920D2283
:101250000E92C3220F9210930523119306A8FFF755
:1012600017FB18B1C0211648FFF7E4FF0F230193C5
:1012700002230293002303934FF4A05304934FF4EB
:1012800080530593032101A8FFF792FD18B1CE21E9
:101290000B48FFF7CFFFFFF799FE0A4BA3FB003087
:1012A0008009FFF7EBF80420FFF7FEF800220F217A
:1012B0004FF0FF30FFF7A0F813B05DF804FB00BF5C
:1012C00020240008D34D621070B58AB0FFF74EF8A5
:1012D000FFF7B2FFFFF70CFF0D4C05AD26460FCE12
:1012E0000FC533682B60002105A800F0B7FA094E3E
:1012F00030606D4614340FCC0FC523682B6000217D
:10130000684600F0ABFA306000F0A2FAFEE700BFDA
:10131000F8230008703D0020704700BF10B582B070
:1013200000240094214B5A6C42F480425A645A6C57
:1013300002F480420092009A01941A6C42F08052AA
:101340001A641B6C03F080530193019B0320FFF789
:1013500035F8224621466FF00B00FFF74DF8224684
:1013600021466FF00A00FFF747F8224621466FF04A
:101370000900FFF741F8224621466FF00400FFF70D
:101380003BF8224621466FF00300FFF735F822466E
:101390000F216FF00100FFF72FF822460F214FF0C9
:1013A000FF30FFF729F802B010BD00BF003802403F
:1013B00008B5FEF7F5FF00F073FA08BD124A12F007
:1013C000070F07D0D11D21F00701C1F57053134459
:1013D0000A4601E04FF470530C480260002141605E
:1013E0001344083B23F00703094803605960196060
:1013F000991A51601360074B1960074B19604FF041
:101400000042064B1A607047300000202800002080
:1014100024000020343C002020000020303C00202C
:10142000124B00E013461A688242FBD310B45C688A
:101430001919884203D1416821445960184644680B
:1014400001198A420CD10A4909688A4206D05268B9
:10145000224442601A681268026002E0016000E003
:101460000260984200D0186010BC7047280000202D
:101470002400002070B5044600F00AFC394B1B68BC
:101480000BB9FFF79BFF384B1B681C4253D194B13B
:10149000083414F0070F0ED024F00704083404F0C9
:1014A000070343B14FF0500383F31188BFF36F8FED
:1014B000BFF34F8FFEE7002C3FD02C4B1B689C42A4
:1014C0003DD82B4B1D6801E02B4615466A689442B7
:1014D00002D92A68002AF7D1224A1268954230D0F0
:1014E0001E6808362A681A606B681B1B102B10D9FF
:1014F000281910F0070F08D04FF0500383F311881C
:10150000BFF36F8FBFF34F8FFEE743606C60FFF751
:1015100087FF6A6815490B689B1A0B6015490968B3
:101520008B4201D213490B600F4B1B681A436A6050
:1015300000232B6006E0002604E0002602E00026DF
:1015400000E0002600F03EFC16F0070F08D04FF038
:10155000500383F31188BFF36F8FBFF34F8FFEE704
:10156000304670BD24000020303C002020000020C8
:1015700028000020343C0020A0B338B50346A0F179
:10158000080550F8042C1849096812EA010408D12A
:101590004FF0500383F31188BFF36F8FBFF34F8F6A
:1015A000FEE750F8080C40B14FF0500383F3118868
:1015B000BFF36F8FBFF34F8FFEE794B188B91C461E
:1015C00022EA010243F8042C00F062FB54F8043CC8
:1015D000064A11680B4413602846FFF721FF00F00C
:1015E000F1FB38BD704700BF303C002020000020D8
:1015F0000B4B1B68B3F1FF3F08D04FF0500383F350
:101600001188BFF36F8FBFF34F8FFEE74FF050038A
:1016100083F31188BFF36F8FBFF34F8FFEE700BFD7
:101620001000002006480068006880F3088862B651
:1016300061B6BFF34F8FBFF36F8F00DF00BF0000B5
:1016400008ED00E04FF0807340F8043C21F0010108
:1016500040F8081C034B40F80C3C40F8202C403864
:10166000704700BFF11500080000000000000000F6
:10167000074B19680868B0E8F00F80F30988BFF3DA
:101680006F8F4FF0000080F311884EF00D0E704701
:10169000003D00204FF0500383F31188BFF36F8F9C
:1016A000BFF34F8F0A4A136801331360012B0DD12A
:1016B000084B1B6813F0FF0F08D04FF0500383F363
:1016C0001188BFF36F8FBFF34F8FFEE7704700BFE6
:1016D0001000002004ED00E0094B1B6843B94FF0F7
:1016E000500383F31188BFF36F8FBFF34F8FFEE773
:1016F000013B034A13600BB983F31188704700BFA5
:1017000010000020000000000000000000000000A9
:10171000EFF30980BFF36F8F0D4B1A6820E9F00FCC
:1017200010602DE908404FF0500080F3118800F060
:101730002BFC4FF0000080F31188BDE808401968C9
:101740000868B0E8F00F80F30988BFF36F8F704727
:10175000003D002008B54FF0500383F31188BFF31C
:101760006F8FBFF34F8F00F09BFA18B14FF080528C
:10177000024B1A60002383F3118808BD04ED00E0DA
:10178000064B1B68064AA2FB03239B09013B054A43
:1017900013600722044B1A60704700BF0C00002042
:1017A000D34D621014E000E010E000E000B583B01B
:1017B0001F4B1A78D2B20192FF221A701B78DBB24B
:1017C0008DF803309DF8033003F05003194A13706D
:1017D0000722194B1A6009E0174A1368013B13608E
:1017E0009DF803305B00DBB28DF803309DF80330C9
:1017F00013F0800FF0D1104A13681B0203F4E0636A
:101800001360019BDBB20A4A13700C4B1A6842F456
:1018100070021A601A6842F070421A60FFF7B0FF57
:101820000022074B1A60FFF7FDFEFFF7E1FE00BF45
:1018300000E400E0383C00203C3C002020ED00E0CB
:1018400010000020842801D003307047002070472A
:1018500008B500F0DFF9002008BD00BFF0B585B085
:101860000F46446805680669B0F90800FFF7EAFF0B
:1018700003AB019300903B46B2B22946204600F0EC
:1018800097F9012801D1039800E0002005B0F0BDD0
:1018900008B508B90120FFE700F010FB002008BDE3
:1018A00008B500F0BBFB012801D0FFF753FF08BDCE
:1018B00000F1080343604FF0FF328260C3600361B0
:1018C00000230360704700BF00230361704700BF1F
:1018D00043684B609A688A609A68516099600861B1
:1018E000036801330360704730B40D68B5F1FF3F02
:1018F00001D1026907E000F1080200E01A465368CE
:101900001C68A542FAD253684B6099608A605160A6
:10191000086103680133036030BC704703694268A3
:10192000816891608268416851605A68904201D133
:1019300082685A6000220261186801381860704796
:101940000A4B1B681B680BB9012300E0002323B17D
:101950004FF0FF32064B1A607047044B1B68DB6880
:10196000DB685A68024B1A60704700BF443C002095
:10197000203D002010B50446006BFFF7FDFD20461A
:10198000FFF7FAFD10BD00BF2DE9F04780469946EC
:10199000089D099F0A9C236B02F18042013A03EBE8
:1019A000820626F00706002306E0C856E21882F8F1
:1019B0003400CA5612B101330F2BF6D9002384F834
:1019C0004330062D00D90625E56265644FF0000A14
:1019D000C4F848A0201DFFF777FF04F11800FFF7B7
:1019E00073FF2461C5F10705A5616462C4F84CA0CA
:1019F00084F850A04A4641463046FFF723FE206057
:101A000007B13C60BDE8F08738B5002407E004EB7F
:101A1000840293000E481844FFF74AFF0134062C55
:101A2000F5D90C4D2846FFF743FF0B4C2046FFF736
:101A30003FFF0A48FFF73CFF0948FFF739FF094815
:101A4000FFF736FF084B1D60084B1C6038BD00BF18
:101A5000683C0020283D00203C3D0020043D002043
:101A60004C3C0020503D0020443C0020603C0020C5
:101A700010B50446FFF70EFE204A136801331360C9
:101A80001F4B1B683BB91E4B1C601368012B0DD10B
:101A9000FFF7BAFF0AE01B4B1B683BB9184B1B68EA
:101AA000DA6AE36A9A4201D8154B1C60164A136839
:101AB00001331360E36A012202FA03F1134802685A
:101AC0000A43026003EB83039A00211D104810446F
:101AD000FFF7FEFEFFF700FE0A4B1B686BB1084BD9
:101AE0001B68DA6AE36A9A4207D24FF08052094BC8
:101AF0001A60BFF34F8FBFF36F8F10BDFC3C002007
:101B0000003D0020483C0020243D0020643D002092
:101B1000683C002004ED00E070B504460E461D4B05
:101B20001D681D4B18680430FFF7F8FE50B91A4BBA
:101B30001B68DA6A012303FA02F218490B6823EAE8
:101B400002030B60B4F1FF3F07D136B1124B1968A5
:101B500004311348FFF7BCFE70BD2C440E4B1B68CC
:101B60005C60A54207D90F4B18680B4B196804310C
:101B7000FFF7BAFE70BD0C4B1868074B19680431AB
:101B8000FFF7B2FE094B1B689C4201D2074B1C6059
:101B900070BD00BF1C3D0020003D0020643D0020C2
:101BA000503D0020603C0020443C0020203D0020AF
:101BB0002DE9F04385B006460F461546984690003D
:101BC000FFF758FC60B181465420FFF753FC0446F0
:101BD00010B1C0F8309004E04846FFF7CDFC00E0BB
:101BE00000248CB10023039302940D9B01930C9B62
:101BF000009343462A4639463046FFF7C5FE204645
:101C0000FFF736FF012001E04FF0FF3005B0BDE8DF
:101C1000F08300BF00B583B0174B019300230093FE
:101C2000802216491648FFF7C3FF012814D14FF050
:101C3000500383F31188BFF36F8FBFF34F8F4FF0C3
:101C4000FF32104B1A6001220F4B1A6000220F4B1B
:101C50001A60FFF7ABFD0BE0B0F1FF3F08D14FF08A
:101C6000500383F31188BFF36F8FBFF34F8FFEE7ED
:101C700003B05DF804FB00BF183D002048240008B5
:101C8000611F0008203D0020483C00201C3D002032
:101C9000024A136801331360704700BFF43C002010
:101CA000F8B53D4B1B68002B69D13C4B1D680135D5
:101CB0001D60C5B93A4B1B681B6843B14FF0500318
:101CC00083F31188BFF36F8FBFF34F8FFEE7344A62
:101CD0001168344B186810601960334A1368013377
:101CE0001360FFF72DFE314B1B689D4203D2002489
:101CF0003AE0012400E00024294B1B681B680BB963
:101D0000012300E0002323B14FF0FF32274B1A607C
:101D10002AE0234B1B68DB68DE6873689D4202D2B1
:101D2000224A136020E0371D3846FFF7F7FDB36AFB
:101D30001BB106F11800FFF7F1FDF36A012202FA68
:101D400003F11B4802680A43026003EB83039A0015
:101D5000394618481044FFF7BBFDF26A164B1B6862
:101D6000DB6A9A42C5D2C7E7134B1B68DB6A03EBF9
:101D700083039A000F4B9B58012B06D806E00F4AAD
:101D8000136801331360002400E001240C4B1B682E
:101D900003B101242046F8BDF43C00201C3D002086
:101DA000443C0020603C0020403C0020203D0020BE
:101DB000643D0020683C0020003D0020643C002081
:101DC000683D002038B5344B1B6843B94FF05003D1
:101DD00083F31188BFF36F8FBFF34F8FFEE7FFF7D9
:101DE00059FC2D4B1A68013A1A601B68002B4CD124
:101DF0002A4B1B6833BB00244AE0294BDB68DC68B4
:101E000004F11800FFF78AFD251D2846FFF786FD1F
:101E1000E36A012202FA03F1224802680A430260DF
:101E200003EB83039A0029461F481044FFF750FD37
:101E3000E26A1E4B1B68DB6A9A4204D301221C4BE8
:101E40001A6000E00024164B1B68002BD5D10CB1A2
:101E5000FFF776FD174B1C6854B1FFF721FF10B157
:101E60000122134B1A60013CF7D10022114B1A607A
:101E70000F4B1B685BB14FF080520F4B1A60BFF3E2
:101E80004F8FBFF36F8F012402E0002400E0002495
:101E9000FFF722FC204638BDF43C0020FC3C00202B
:101EA000043D0020643D0020683C0020003D0020EF
:101EB000683D0020643C002004ED00E010B5A8B1AE
:101EC0000446104B1B6843B14FF0500383F3118855
:101ED000BFF36F8FBFF34F8FFEE7FFF7D9FE0021EF
:101EE0002046FFF719FEFFF76DFF00E0002038B92C
:101EF0004FF08052044B1A60BFF34F8FBFF36F8FC8
:101F000010BD00BFF43C002004ED00E010B51BE064
:101F1000FFF7BEFE0F4B1C68FFF754FFA4B1FFF79D
:101F2000B9FB0C4BDB68DC68201DFFF7F7FC0A4AA5
:101F30001368013B1360094A1368013B1360FFF704
:101F4000CBFB2046FFF716FD044B1B68002BDFD1AF
:101F500010BD00BF4C3C0020FC3C0020F83C0020A1
:101F600008B5FFF7D3FF064B1B68012BF9D94FF0DB
:101F70008052044B1A60BFF34F8FBFF36F8FF0E7AF
:101F8000683C002004ED00E01F4B1B681BB10122E0
:101F90001E4B1A60704700221C4B1A601C4B1B68BA
:101FA000B3FA83F3DBB2C3F11F0303EB83018A00AF
:101FB00018498A5842B94FF0500383F31188BFF390
:101FC0006F8FBFF34F8FFEE730B4124D9900CA18E0
:101FD0009000284442685468446019448A000832DA
:101FE0002A44944205D1606803EB83018A002A44A5
:101FF000506003EB83039A00064B1A445368DA6877
:10200000054B1A6030BC7047F43C0020683D00204E
:10201000643D0020683C0020003D0020054B1B680B
:1020200023B1054B1B681BB9022070470120704784
:1020300000207047483C0020F43C002053B94AB9C6
:10204000002908BF00281CBF4FF0FF314FF0FF30C0
:1020500000F082B9ADF1080C6DE904CE00F006F88D
:10206000DDF804E0DDE9022304B070472DE9F04F0C
:102070008C460C460546099E002B4FD18A421746D6
:102080006BD9B2FA82FEBEF1000F0BD0CEF1200563
:1020900020FA05F501FA0EF345EA030C02FA0EF7F1
:1020A00000FA0EF5390CBCFBF1F0BAB201FB10C31B
:1020B00000FB02F84FEA154C4CEA0344A04509D94D
:1020C000E41900F1FF3380F02881A04540F225811A
:1020D00002383C44C8EB0404B4FBF1F301FB134C9D
:1020E00003FB02F2ACB244EA0C418A4209D9C91995
:1020F00003F1FF3480F00F818A4240F20C81023BF1
:1021000039448A1A43EA00400021002E63D022FAA3
:102110000EF2002386E80C00BDE8F08F8B4207D951
:10212000002E56D0002186E811000846BDE8F08F49
:10213000B3FA83F1002940F09380A34202D3824294
:1021400000F2FE80851A64EB03039C460120002EFA
:1021500041D086E82010BDE8F08F12B90127B7FB07
:10216000F2F7B7FA87FEBEF1000F36D1E41B4FEA53
:1021700017481FFA87F90121B4FBF8F308FB134451
:1021800009FB03F24FEA154C4CEA0444A24207D97A
:10219000E41903F1FF3002D2A24200F2D3800346D9
:1021A000A41AB4FBF8F008FB104809FB00F9ACB224
:1021B00044EA0842914507D9D21900F1FF3402D20E
:1021C000914500F2BA802046C9EB020240EA034082
:1021D0009BE731463046BDE8F08F07FA0EF7CEF1A7
:1021E000200C24FA0CF34FEA1748B3FBF8FA1FFA55
:1021F00087F908FB1A3520FA0CFC04FA0EF40AFBE6
:1022000009FB4CEA040C4FEA1C4242EA05439B4599
:1022100000FA0EF50AD9DB190AF1FF3280F08B8043
:102220009B4540F28880AAF1020A3B44CBEB0303B2
:10223000B3FBF8F008FB103300FB09F41FFA8CFC29
:102240004CEA03439C4207D9DB1900F1FF326ED2FE
:102250009C426CD902383B441C1B40EA0A418BE784
:10226000C1F1200E8B4022FA0EFC4CEA030C24FA3A
:102270000EF74FEA1C49B7FBF9FA1FFA8CF309FB7A
:102280001A7720FA0EF88C400AFB03F548EA04049A
:102290004FEA144848EA0747BD4202FA01F200FA41
:1022A00001FB09D917EB0C070AF1FF3041D2BD42FF
:1022B0003FD9AAF1020A67447F1BB7FBF9F509FB76
:1022C000157705FB03F3A4B244EA0747BB4208D9DC
:1022D00017EB0C0705F1FF3027D2BB4225D9023D91
:1022E000674445EA0A40A0FB0289FF1A4F4545466C
:1022F0004C4614D329D066B3BBEB050367EB040748
:1023000007FA0EFECB40CF404EEA030386E8880072
:102310000021BDE8F08F2346F3E61846DAE6B8EB75
:10232000020569EB0C040138E5E70546D9E71046DC
:1023300092E78246C0E7924678E702383A4443E79C
:10234000084604E7023B3C442AE7C345E7D33C4642
:10235000D1E73146BDE8F08F704700BF2E2E2F73B6
:10236000797374656D2F7372632F73746D33326676
:102370003278782F73746D3332663278785F6861A3
:102380006C5F636F727465782E6300002E2E2F735E
:10239000797374656D2F7372632F73746D33326646
:1023A0003278782F73746D3332663278785F686173
:1023B0006C5F6770696F2E63000000002E2E2F7314
:1023C000797374656D2F7372632F73746D33326616
:1023D0003278782F73746D3332663278785F686143
:1023E0006C5F7263632E6300000000000000000059
:1023F00001020304060708093C240008F91100083B
:1024000000000000000000008000000030240008F0
:102410001112000800000000000000008000000011
:102420002E2E2F7372632F6D61696E2E6300000074
:10243000626C75656C65647461736B00646566617C
:10244000756C745461736B0049444C450000000086
:082450001CFCFF7F01000000ED
:10245800785634121C000020000000000024F4000C
:08246800AAAAAAAA3254769830
:040000050800018569
:00000001FF
